:100D490057656C636F6D6520746F20757365210A33
:100D59000057656E64753A005365742077656E6453
:100D6900753A00672D004552524F520A00455252BA
:040D79004F522000B5
:100BCA00045F00000000042D00000000043B000048
:100BDA000000012600C101C1000227001E022B00ED
:100BEA0000022900000A31303132333435363738C1
:0B0BFA003901632D0521000000000000
:0E0F0B00EFC4540F75F00AA4FEEF540F2EFF32
:010F190022B5
:1009DF00120EA4AF0A120F0BEF75F00A84754B00BD
:1009EF00F54CAF0A120F0BEF75F00A84AFF0755389
:1009FF00008F54AF09120F0BEF75F00A8475570073
:100A0F00F558AF09120F0BEF75F00A84AFF0755957
:100A1F00008F5AC3E55A952CFFE559952BFEEF64CD
:100A2F00014E7008052AE52A7002052985592B8584
:100A3F005A2CAF08120F0BEF75F00A84754900F5A9
:100A4F004AAF08120F0BEF75F00A84AFF075400034
:100A5F008F417FCF120EBA7431252AF8E6FF120E9E
:080A6F00CF7F017E00020E376B
:10090A002095417F0A7E00120E372095340528E58E
:10091A0028700205277FCD120EBA7431254AF8E6EF
:10092A00FF120ECF7F017E00120E377FCD120EBA54
:10093A007431254AF8E6FF120ECF7F017E00120EAF
:10094A00373095FD2096157F0A7E00120E372096C5
:10095A0008E5281528700215273096FD2097367F5E
:10096A000A7E00120E372097297FCC120EBA7F4FCB
:10097A00120ECF7F017E00120E377FCD120EBA7F84
:10098A004B120ECF7FE87E03120E377FE87E0312EA
:10099A000E373097FD7FCC120EBAAE27AF287C00F7
:1009AA007D0A12038B74312FF8E6FF120ECF7F01F6
:1009BA007E00120E377FCD120EBAAE27AF287C000A
:1009CA007D0A12038B74312DF8E6FF120ECF7F01D8
:0509DA007E00020E3753
:0407F1008E0F8F10C8
:1007F500C3E50F6480948050227F87120EBA7599E5
:100805002D3099FDC2997F2D120ECFE51015107070
:1008150002150F6310FF630FFF80127F87120EBA58
:100825007F20120ECF75992B3099FDC299AC0FAD73
:1008350010EC1202A68F148E138D128C11E4FFFE9C
:100845007DC87C40AB14AA13A912A8111200FBE4C1
:10085500FBFAF9783F12000A1202DF8E0F8F10AEF5
:100865000FAF107C277D101203E08F21AE0FAF1064
:100875007C277D101203E07E037FE8CFCDCFCECC61
:10088500CE1203E08F22AE0FAF107C037DE812037A
:10089500E07E007F64CFCDCFCECCCE1203E08F2398
:1008A500AE0FAF107C007D641203E07E007F0ACF9F
:1008B500CDCFCECCCE1203E08F24AE0FAF107C008F
:1008C5007D0A1203E08D257F88120EBAE5222430B9
:1008D500FF120ECF7F89120EBAE5232430FF120EC8
:1008E500CF7F8A120EBA7F2E120ECF7F8B120EBAD1
:1008F500E5242430FF120ECF7F8C120EBAE5252495
:0509050030FF020ECFDF
:10051B00120EF87BFF7A0D7949120D7D120E7512B2
:10052B000E147F80120EBA7BFF7A0D795A120DA52D
:10053B007FC0120EBA7BFF7A0D7961120DA5120DD9
:10054B00F0120F28D292D2912098030206178599A8
:10055B003FC298E53F249E700302060C1470030201
:10056B00061114700302061524036003020617120A
:10057B000B03E47BE87A03F9F8AF3EAE3DAD3CAC40
:10058B003B120C0FEF2430FF120F34E47BE87A039D
:10059B00F9F8AF3EAE3DAD3CAC3B120C0FAC00AD31
:1005AB0001AE02AF03E47B64FAF9F8120C0FEF24EF
:1005BB0030FF120F34E47B64FAF9F8AF3EAE3DAD79
:1005CB003CAC3B120C0FAC00AD01AE02AF03E47BB5
:1005DB000AFAF9F8120C0FEF2430FF120F34E47BF8
:1005EB000AFAF9F8AF3EAE3DAD3CAC3B120C0FEB4B
:1005FB002430FF120F347BFF7A0D796C120D7D8046
:10060B000B120F288006D2008002C200120B0312BD
:10061B000EE430011C7BFF7A0D796F120D7D7FC0CC
:10062B00120EBA7BFF7A0D7976120DA5C2B50206B2
:10063B00D1D2B52000030206D1E47BE87A03F9F8A6
:10064B00AF3EAE3DAD3CAC3B120C0FEF2430FF1276
:10065B000F34E47BE87A03F9F8AF3EAE3DAD3CAC2A
:10066B003B120C0FAC00AD01AE02AF03E47B64FA9E
:10067B00F9F8120C0FEF2430FF120F34E47B64FAFD
:10068B00F9F8AF3EAE3DAD3CAC3B120C0FAC00AD40
:10069B0001AE02AF03E47B0AFAF9F8120C0FEF2458
:1006AB0030FF120F34E47B0AFAF9F8AF3EAE3DADE2
:1006BB003CAC3B120C0FEB2430FF120F347BFF7A58
:1006CB000D796C120D7D1209DF12090A120E8D12B3
:1006DB0007F1E52275F00AA47C002523FFEC35F029
:1006EB00FEC3EF9528EE95274008C2A4D293C2947F
:1006FB008006D2A4C293D294E47BE87A03F9F8AFD4
:10070B003EAE3DAD3CAC3B120C0FAC00AD01AE02AE
:10071B00AF03E47B64FAF9F8120C0FA804A905AA3D
:10072B0006AB07C3E55C9BFFE55B9AFEE499FDE432
:10073B0098FCE47B01FAF9F8C31204247005F55D0B
:10074B00755E01E47BE87A03F9F8AF3EAE3DAD3C54
:10075B00AC3B120C0FAC00AD01AE02AF03E47B64FB
:10076B00FAF9F8120C0F8E5B8F5CE55E6401455D48
:10077B007008F55DF55EF529F52AAE4BAF4C7C00A4
:10078B007D0A120379E5542FFFE5533EFEC3EF9428
:10079B0015EE9400400302054FEF9406EE940050C3
:1007AB000302054FD3E52A9402E529940050030276
:1007BB00054FE4F529F52AF553F554C3E554940395
:1007CB00E5539400400302054FC291120DF0D291F4
:1007DB00120DF0120DF0120DF0120DF00554E55440
:0607EB0070D9055380D512
:100EE40020B2107F057E00120DF420B20630B2FD50
:040EF400120F28228F
:100B0300120C958F3E8E3D8D3C8C3BC3E53E95305C
:100B1300F53EE53D952FF53DE53C952EF53CE53B52
:100B2300952DF53BE4FFFEFDFCAB3EAA3DA93CA899
:100B33003BD3120424403CAF3EAE3DAD3CAC3BEC5A
:100B43001202A1E4FBFA79C378431202041202DF12
:100B5300E48F3E8E3DF53CF53B7F887E13FDFCAB79
:100B63003EAA3DA93CA83BD31204244003D2012250
:0D0B7300C20122E4F53EF53DF53CF53B22C4
:0C0F2800120C958F308E2F8D2E8C2D22F8
:040DF0007FE87E0317
:100DF400E4FDFCC3ED9FEC9E5015E4FBFA0BBB0035
:0F0E0400010AEB647B4A70F50DBD00010C80E420
:010E130022BC
:030F4E000000227E
:100C9500D2A1120F4EC2A07F007E007D007C00D243
:100CA500AF20A1FDC2AFE4FBD2A0780112043AC285
:100CB500A030A10DEF2401FFE43EFEE43DFDE43C40
:100CC500FC0BBB18E3D2A0ED6480FD120F4EC2A051
:010CD50022FC
:100EF800759850758920758DFD758BFDD28ED2AF92
:030F0800D2AC2246
:100D7D008B0F8A108911AB0FAA10A9111203606095
:100D8D00160511E5117002051014F9120360F5999D
:080D9D003099FDC29980DF22AC
:0A0F3400C2998F993099FDC29922ED
:100E3700E4FDFCC3ED9FEC9E5015E4FBFA0BBB00F1
:0F0E4700010AEB647B4A70F50DBD00010C80E4DD
:010E56002279
:100EBA00A907C2A77F017E00120E37D2A589801228
:050ECA000E37C2A52255
:100ECF00A907D2A77F017E00120E378980D2A51203
:050EDF000E37C2A52240
:100DA5008B0F8A108911AB0FAA10A911120360FFCE
:100DB500D394004010120ECF74012511F511E435BE
:060DC50010F51080E12290
:100E7500C2A5C2A67F38120EBA7F0C120EBA7F0623
:080E8500120EBA7F01020EBA41
:0E0F1A0081838587898B8D80828486888A8C6E
:090C050007083500090705061671
:100D1400C2B500C2B600D2B500E4FEEF1392B3EF41
:100D2400C313FFD2B600C2B6000EBE08EEE4FEED59
:100D34001392B3EDC313FDD2B600C2B6000EBE08C3
:040D4400EEC2B50046
:010D48002288
:100B8000C2B500C2B600D2B500E4FDEF1392B3EFD8
:100B9000C313FFD2B600C2B6000DBD08EE00E4FDDF
:100BA000A2B3E433FFC43333335480FCEEC3134C9D
:100BB000FED2B600C2B6000DBD08E5C2B500D2B681
:090BC00000C2B300D2B300AF067D
:010BC9002209
:100E1400E4FD7F8E120D14E4FCEC900F2193FF741B
:100E2400082CF8E6FD120D140CBC07ED7D807F8EB6
:030E3400020D1498
:100EA400E4FBEB900F1A93FF120B8074082BF8A647
:050EB400070BBB07ED78
:010EB9002216
:100E5700D3EF9400EE940040147D6E7C00ED1D707E
:0D0E6700011CED4C70F7EF1F70E61E80E3DC
:010E7400225B
:100DCB00C2B77B46AF031BEF70FAD2B7E4FB30B769
:100DDB00117F017E00120E570BEBD3940540EF7F72
:040DEB0000227F0162
:010DEF0022E1
:0C0C5300120DCB7F017E00120E577FCCEB
:100C5F00E4FBFAC2B70511E51170020510EF13920C
:100C6F00B7751000751106E5111511AC107002154E
:100C7F00104C70F3D2B7EFC313FF0BBB00010AEB9D
:050C8F0064084A70CE6C
:010C9400223D
:100CD6007D087C00C2B70FBF0000D2B70FBF00006F
:100CE6000FBF0000A2B7E433C43333335480FBE9AB
:100CF600C3134BF97E007F04EF1FAA0670011E4A3C
:0D0D060070F6ED1D70011CED4C70C9AF01C1
:010D130022BD
:080F3E00120C537F44020C5F0A
:080F4600120C537FBE020C5F88
:100E8D00E4FFFE120F3E120F46120CD68F0F120CFE
:060E9D00D6EFFEE50FFF99
:010EA300222C
:1000030002034BE86480F8E933E83360110460F0DD
:10001300ED33EC337009E8FCE9FDEAFEEBFF220463
:1000230060DED3EB9FEA9EE99DE8C2E78CF0C2F75E
:1000330095F0400CE8CCF8E9CDF9EACEFAEBCFFB2A
:1000430012031685D0F05804700320D5B3E804706A
:10005300075002B2D502035592D5EC0460F7E4CC05
:10006300C0E0C398F8603B94186008400DD0E0FBF3
:1000730002032DE4FBFAC9FC8028E830E406E4C956
:10008300FBE4CAFCE830E305E4C9CACBFCE8540747
:100093006010F8C3E913F9EA13FAEB13FBEC13FC52
:1000A300D8F130F52FC3E49CFCEF9BFFEE9AFEEDF5
:1000B30099FDD0E0FBEF4E4D4C701222DB0302039F
:1000C30052EC2CFCEF33FFEE33FEED33FDED30E766
:1000D300EB02032DEF2BFFEE3AFEED39FDD0E0FBF3
:1000E30050130BBB0003020355ED13FDEE13FEEF9C
:0800F30013FFEC13FC02032DC6
:1000FB00EC4D6011E8497017ED33EC3304600DE4FF
:10010B00FCFFFEFD22E933E8330470F802034B12C7
:10011B00031658046009E4CC2481500628500902C8
:10012B000355284003020352C0E0EB4A7044B980E8
:10013B0006D0E0FB020341EF4E701CBD8008EBFFC5
:10014B00EAFEE9FD80EBE98DF0A4FEE5F00201E4A7
:10015B00E9CDF9EAFEEBFFEF89F0A4FCE5F0CE89DF
:10016B00F0A42EFFE435F0CD89F0A42DFEE435F09C
:10017B008067EF4E7005BD80D780C3EF8BF0A4ACCA
:10018B00F0EE8BF0A42CFCE435F0F8EF8AF0A42C05
:10019B00E5F038FCE433CB8DF0A42CFCE5F03BF818
:1001AB00EE8AF0A42CFCE5F038F8E433CF89F0A408
:1001BB002CFCE5F038CF3400CE89F0A42FFFE5F00E
:1001CB003EFEE433C98DF0A42EFEE5F039CD8AF066
:1001DB00A42FFFE5F03EFEE43DFD33D0E0FB5007DE
:1001EB000BBB000F020355EC2CFCEF33FFEE33FE81
:0601FB00ED33FD02032DAF
:10020100020355EC5D046005E85904700302034BD9
:10021100120316580460F6EC4860F2EC7004FDFE1F
:10022100FF22C860DB2481C85009C39860025006D0
:100231000203529850CAF582E9294B4A7005AB82F4
:1002410002034175F0007C1A7880C3EF9BEE9AEDB2
:1002510099400DC3EF9BFFEE9AFEED99FDE842F048
:10026100DC23ACF0D0E0FFD0E0FED0E0FDAB82209B
:10027100E7101BEB60BAEC2CFCEF33FFEE33FEED25
:1002810033FD02032DE803F830E705C0F075F000F7
:10029100EF2FFFEE33FEED33FD40B830E7C280AA09
:1002A10075F020800E75F010800575F0087D007ED8
:1002B100007F003392D530D503120416EC33401081
:1002C100EF33FFEE33FEED33FDEC33FCD5F0ED22E1
:0E02D100E5F0247EA2D513CC92E7CDCEFF221D
:1002DF00EDD2E7CD33EC3392D524814006E4FFFE17
:1002EF00FDFC22FCE4CFCECDCC24E0501174FF8076
:1002FF00EDC3CC13CCCD13CDCE13CECF13CF047013
:07030F00F030D5DE020416F8
:10031600E9D2E7C933E833F892D5EDD2E7CD33EC2D
:0703260033FC5002B2D522A6
:10032D00EC30E7100FBF000C0EBE00080DBD000431
:10033D000BEB6014A2D5EB13FCED92E7FD2274FFDD
:10034D00FCFDFEFF22E480F8A2D574FF13FC7D8036
:03035D00E480EF4A
:03000000020A777A
:0C0A7700787FE4F6D8FD758163020ABEAA
:10036000BB010689828A83E0225002E722BBFE029B
:09037000E32289828A83E49322CE
:10037900EF8DF0A4A8F0CF8CF0A428CE8DF0A42E98
:02038900FE2252
:10038B00BC000BBE0029EF8DF084FFADF022E4CC56
:10039B00F875F008EF2FFFEE33FEEC33FCEE9DEC1F
:1003AB00984005FCEE9DFE0FD5F0E9E4CEFD22ED65
:1003BB00F8F5F0EE8420D21CFEADF075F008EF2FAF
:1003CB00FFED33FD4007985006D5F0F222C398FDA0
:0503DB000FD5F0EA223D
:1003E000C2D5EC30E709B2D5E4C39DFDE49CFCEE38
:1003F00030E715B2D5E4C39FFFE49EFE12038BC322
:10040000E49DFDE49CFC800312038B30D507C3E41C
:060410009FFFE49EFE22A6
:100C0F00C2D5E830E70FB2D5E4C39BFBE49AFAE410
:100C1F0099F9E498F8EC30E717B2D5120C451204A5
:100C2F0089E4C39BFBE49AFAE499F9E498F880030A
:100C3F0012048930D50DE4C39FFFE49EFEE49DFDB1
:040C4F00E49CFC2203
:0E041600C3E49FFFE49EFEE49DFDE49CFC22F7
:10042400EB9FF5F0EA9E42F0E99D42F0EC6480C84F
:0604340064809845F022EF
:10043A00E8600FEFC333FFEE33FEED33FDEC33FC20
:03044A00D8F122C4
:100A830002051BE493A3F8E493A34003F68001F269
:100A930008DFF48029E493A3F85407240CC8C33374
:100AA300C4540F4420C8834004F456800146F6DF43
:100AB300E4800B0102040810204080900BCAE47EFE
:100AC300019360BCA3FF543F30E509541FFEE49338
:100AD300A360010ECF54C025E060A840B8E493A3FF
:100AE300FAE493A3F8E493A3C8C582C8CAC583CA2A
:100AF300F0A3C8C582C8CAC583CADFE9DEE780BEE2
:010C0E0000E5
:10044D0075F008758200EF2FFFEE33FECD33CDCC66
:10045D0033CCC58233C5829BED9AEC99E5829840E9
:10046D000CF582EE9BFEED9AFDEC99FC0FD5F0D6C6
:10047D00E4CEFBE4CDFAE4CCF9A88222B800C1B9F0
:10048D000059BA002DEC8BF084CFCECDFCE5F0CB2E
:10049D00F97818EF2FFFEE33FEED33FDEC33FCEB67
:1004AD0033FB10D703994004EB99FB0FD8E5E4F922
:1004BD00FA227818EF2FFFEE33FEED33FDEC33FC0F
:1004CD00C933C910D7059BE99A4007EC9BFCE99A03
:1004DD00F90FD8E0E4C9FAE4CCFB2275F010EF2F48
:1004ED00FFEE33FEED33FDCC33CCC833C810D70748
:1004FD009BEC9AE899400AED9BFDEC9AFCE899F883
:0E050D000FD5F0DAE4CDFBE4CCFAE4C8F92215
:00000001FF
